{
  "address": "0x9456efa61357033729674f39c4a983b6889fd6f4",
  "abi": [
    {
      "inputs": [
        {
          "internalType": "address",
          "name": "_owner",
          "type": "address"
        }
      ],
      "name": "balanceOf",
      "outputs": [
        {
          "internalType": "uint256",
          "name": "balance",
          "type": "uint256"
        }
      ],
      "stateMutability": "view",
      "type": "function"
    },
    {
      "inputs": [
        {
          "internalType": "address",
          "name": "",
          "type": "address"
        }
      ],
      "name": "balances",
      "outputs": [
        {
          "internalType": "uint256",
          "name": "",
          "type": "uint256"
        }
      ],
      "stateMutability": "view",
      "type": "function"
    },
    {
      "inputs": [
        {
          "internalType": "address",
          "name": "_owner",
          "type": "address"
        }
      ],
      "name": "canWithdraw",
      "outputs": [
        {
          "internalType": "bool",
          "name": "",
          "type": "bool"
        }
      ],
      "stateMutability": "view",
      "type": "function"
    },
    {
      "inputs": [
        {
          "internalType": "address",
          "name": "",
          "type": "address"
        }
      ],
      "name": "lockTimes",
      "outputs": [
        {
          "internalType": "uint256",
          "name": "",
          "type": "uint256"
        }
      ],
      "stateMutability": "view",
      "type": "function"
    },
    {
      "inputs": [
        {
          "internalType": "address",
          "name": "_to",
          "type": "address"
        },
        {
          "internalType": "uint256",
          "name": "_value",
          "type": "uint256"
        }
      ],
      "name": "transfer",
      "outputs": [],
      "stateMutability": "nonpayable",
      "type": "function"
    },
    {
      "inputs": [],
      "name": "withdraw",
      "outputs": [],
      "stateMutability": "nonpayable",
      "type": "function"
    }
  ],
  "transactionHash": "0x76f62a8e174ac6bec541a3f7742b84859df1ea1f2b68518a31e6be1c93a7c8a6",
  "args": [],
  "numDeployments": 1,
  "solcInputHash": "4b89ba6a272f75dab507b75c13c9caa9",
  "bytecode": "0x608060405234801561001057600080fd5b506107c7806100206000396000f3fe608060405234801561001057600080fd5b50600436106100625760003560e01c806319262d301461006757806327e235e3146100975780633ccfd60b146100c757806356c7c1b3146100d157806370a0823114610101578063a9059cbb14610131575b600080fd5b610081600480360381019061007c919061050e565b61014d565b60405161008e9190610556565b60405180910390f35b6100b160048036038101906100ac919061050e565b610199565b6040516100be919061058a565b60405180910390f35b6100cf6101b1565b005b6100eb60048036038101906100e6919061050e565b6102ca565b6040516100f8919061058a565b60405180910390f35b61011b6004803603810190610116919061050e565b6102e2565b604051610128919061058a565b60405180910390f35b61014b600480360381019061014691906105d1565b61032a565b005b6000600160008373ffffffffffffffffffffffffffffffffffffffff1673ffffffffffffffffffffffffffffffffffffffff168152602001908152602001600020544210159050919050565b60006020528060005260406000206000915090505481565b6101ba3361014d565b6101f9576040517f08c379a00000000000000000000000000000000000000000000000000000000081526004016101f09061066e565b60405180910390fd5b60008060003373ffffffffffffffffffffffffffffffffffffffff1673ffffffffffffffffffffffffffffffffffffffff16815260200190815260200160002054905060008060003373ffffffffffffffffffffffffffffffffffffffff1673ffffffffffffffffffffffffffffffffffffffff168152602001908152602001600020819055503373ffffffffffffffffffffffffffffffffffffffff166108fc829081150290604051600060405180830381858888f193505050501580156102c6573d6000803e3d6000fd5b5050565b60016020528060005260406000206000915090505481565b60008060008373ffffffffffffffffffffffffffffffffffffffff1673ffffffffffffffffffffffffffffffffffffffff168152602001908152602001600020549050919050565b806000803373ffffffffffffffffffffffffffffffffffffffff1673ffffffffffffffffffffffffffffffffffffffff1681526020019081526020016000205410156103ab576040517f08c379a00000000000000000000000000000000000000000000000000000000081526004016103a2906106da565b60405180910390fd5b806000803373ffffffffffffffffffffffffffffffffffffffff1673ffffffffffffffffffffffffffffffffffffffff16815260200190815260200160002060008282546103f99190610729565b92505081905550806000808473ffffffffffffffffffffffffffffffffffffffff1673ffffffffffffffffffffffffffffffffffffffff168152602001908152602001600020600082825461044e919061075d565b9250508190555062093a8042610464919061075d565b600160008473ffffffffffffffffffffffffffffffffffffffff1673ffffffffffffffffffffffffffffffffffffffff168152602001908152602001600020819055505050565b600080fd5b600073ffffffffffffffffffffffffffffffffffffffff82169050919050565b60006104db826104b0565b9050919050565b6104eb816104d0565b81146104f657600080fd5b50565b600081359050610508816104e2565b92915050565b600060208284031215610524576105236104ab565b5b6000610532848285016104f9565b91505092915050565b60008115159050919050565b6105508161053b565b82525050565b600060208201905061056b6000830184610547565b92915050565b6000819050919050565b61058481610571565b82525050565b600060208201905061059f600083018461057b565b92915050565b6105ae81610571565b81146105b957600080fd5b50565b6000813590506105cb816105a5565b92915050565b600080604083850312156105e8576105e76104ab565b5b60006105f6858286016104f9565b9250506020610607858286016105bc565b9150509250929050565b600082825260208201905092915050565b7f546f6b656e7320617265207374696c6c206c6f636b65642e0000000000000000600082015250565b6000610658601883610611565b915061066382610622565b602082019050919050565b600060208201905081810360008301526106878161064b565b9050919050565b7f496e73756666696369656e742062616c616e63652e0000000000000000000000600082015250565b60006106c4601583610611565b91506106cf8261068e565b602082019050919050565b600060208201905081810360008301526106f3816106b7565b9050919050565b7f4e487b7100000000000000000000000000000000000000000000000000000000600052601160045260246000fd5b600061073482610571565b915061073f83610571565b9250828203905081811115610757576107566106fa565b5b92915050565b600061076882610571565b915061077383610571565b925082820190508082111561078b5761078a6106fa565b5b9291505056fea2646970667358221220f13413947c9846b726199d30901c681b8aa7474f33a0468526483f95be1a314a64736f6c63430008120033",
  "devdoc": {
    "kind": "dev",
    "methods": {},
    "version": 1
  },
  "userdoc": {
    "kind": "user",
    "methods": {},
    "version": 1
  },
  "storageLayout": {
    "storage": [
      {
        "astId": 1197,
        "contract": "contracts/LockToken.sol:LockToken",
        "label": "balances",
        "offset": 0,
        "slot": "0",
        "type": "t_mapping(t_address,t_uint256)"
      },
      {
        "astId": 1201,
        "contract": "contracts/LockToken.sol:LockToken",
        "label": "lockTimes",
        "offset": 0,
        "slot": "1",
        "type": "t_mapping(t_address,t_uint256)"
      }
    ],
    "types": {
      "t_address": {
        "encoding": "inplace",
        "label": "address",
        "numberOfBytes": "20"
      },
      "t_mapping(t_address,t_uint256)": {
        "encoding": "mapping",
        "key": "t_address",
        "label": "mapping(address => uint256)",
        "numberOfBytes": "32",
        "value": "t_uint256"
      },
      "t_uint256": {
        "encoding": "inplace",
        "label": "uint256",
        "numberOfBytes": "32"
      }
    }
  }
}