{
  "address": "0xcEd6FB92263F5F8930e89dD1f9556733BD9c19e7",
  "abi": [
    {
      "inputs": [
        {
          "internalType": "uint256",
          "name": "_time",
          "type": "uint256"
        }
      ],
      "stateMutability": "nonpayable",
      "type": "constructor"
    },
    {
      "anonymous": false,
      "inputs": [
        {
          "indexed": true,
          "internalType": "address",
          "name": "owner",
          "type": "address"
        },
        {
          "indexed": true,
          "internalType": "address",
          "name": "spender",
          "type": "address"
        },
        {
          "indexed": false,
          "internalType": "uint256",
          "name": "value",
          "type": "uint256"
        }
      ],
      "name": "Approval",
      "type": "event"
    },
    {
      "anonymous": false,
      "inputs": [
        {
          "indexed": true,
          "internalType": "address",
          "name": "previousOwner",
          "type": "address"
        },
        {
          "indexed": true,
          "internalType": "address",
          "name": "newOwner",
          "type": "address"
        }
      ],
      "name": "OwnershipTransferred",
      "type": "event"
    },
    {
      "anonymous": false,
      "inputs": [
        {
          "indexed": false,
          "internalType": "address",
          "name": "beneficiary",
          "type": "address"
        },
        {
          "indexed": false,
          "internalType": "uint256",
          "name": "amount",
          "type": "uint256"
        }
      ],
      "name": "TokensClaimed",
      "type": "event"
    },
    {
      "anonymous": false,
      "inputs": [
        {
          "indexed": false,
          "internalType": "uint256",
          "name": "amount",
          "type": "uint256"
        },
        {
          "indexed": false,
          "internalType": "uint256",
          "name": "releaseTime",
          "type": "uint256"
        },
        {
          "indexed": false,
          "internalType": "address",
          "name": "beneficiary",
          "type": "address"
        }
      ],
      "name": "TokensLocked",
      "type": "event"
    },
    {
      "anonymous": false,
      "inputs": [
        {
          "indexed": true,
          "internalType": "address",
          "name": "from",
          "type": "address"
        },
        {
          "indexed": true,
          "internalType": "address",
          "name": "to",
          "type": "address"
        },
        {
          "indexed": false,
          "internalType": "uint256",
          "name": "value",
          "type": "uint256"
        }
      ],
      "name": "Transfer",
      "type": "event"
    },
    {
      "inputs": [],
      "name": "admin",
      "outputs": [
        {
          "internalType": "address",
          "name": "",
          "type": "address"
        }
      ],
      "stateMutability": "view",
      "type": "function"
    },
    {
      "inputs": [
        {
          "internalType": "address",
          "name": "owner",
          "type": "address"
        },
        {
          "internalType": "address",
          "name": "spender",
          "type": "address"
        }
      ],
      "name": "allowance",
      "outputs": [
        {
          "internalType": "uint256",
          "name": "",
          "type": "uint256"
        }
      ],
      "stateMutability": "view",
      "type": "function"
    },
    {
      "inputs": [
        {
          "internalType": "address",
          "name": "spender",
          "type": "address"
        },
        {
          "internalType": "uint256",
          "name": "amount",
          "type": "uint256"
        }
      ],
      "name": "approve",
      "outputs": [
        {
          "internalType": "bool",
          "name": "",
          "type": "bool"
        }
      ],
      "stateMutability": "nonpayable",
      "type": "function"
    },
    {
      "inputs": [
        {
          "internalType": "address",
          "name": "account",
          "type": "address"
        }
      ],
      "name": "balanceOf",
      "outputs": [
        {
          "internalType": "uint256",
          "name": "",
          "type": "uint256"
        }
      ],
      "stateMutability": "view",
      "type": "function"
    },
    {
      "inputs": [
        {
          "internalType": "address",
          "name": "",
          "type": "address"
        }
      ],
      "name": "beneficiaryClaimed",
      "outputs": [
        {
          "internalType": "uint256",
          "name": "",
          "type": "uint256"
        }
      ],
      "stateMutability": "view",
      "type": "function"
    },
    {
      "inputs": [
        {
          "internalType": "address",
          "name": "",
          "type": "address"
        }
      ],
      "name": "beneficiaryIndex",
      "outputs": [
        {
          "internalType": "uint256",
          "name": "",
          "type": "uint256"
        }
      ],
      "stateMutability": "view",
      "type": "function"
    },
    {
      "inputs": [],
      "name": "claimTokens",
      "outputs": [],
      "stateMutability": "nonpayable",
      "type": "function"
    },
    {
      "inputs": [],
      "name": "decimals",
      "outputs": [
        {
          "internalType": "uint8",
          "name": "",
          "type": "uint8"
        }
      ],
      "stateMutability": "view",
      "type": "function"
    },
    {
      "inputs": [
        {
          "internalType": "address",
          "name": "spender",
          "type": "address"
        },
        {
          "internalType": "uint256",
          "name": "subtractedValue",
          "type": "uint256"
        }
      ],
      "name": "decreaseAllowance",
      "outputs": [
        {
          "internalType": "bool",
          "name": "",
          "type": "bool"
        }
      ],
      "stateMutability": "nonpayable",
      "type": "function"
    },
    {
      "inputs": [
        {
          "internalType": "address",
          "name": "_beneficiary",
          "type": "address"
        }
      ],
      "name": "getBeneficiaryClaimedAmount",
      "outputs": [
        {
          "internalType": "uint256",
          "name": "",
          "type": "uint256"
        }
      ],
      "stateMutability": "view",
      "type": "function"
    },
    {
      "inputs": [],
      "name": "getWidrawCount",
      "outputs": [
        {
          "internalType": "uint256",
          "name": "",
          "type": "uint256"
        }
      ],
      "stateMutability": "view",
      "type": "function"
    },
    {
      "inputs": [],
      "name": "getunlockTime",
      "outputs": [
        {
          "internalType": "uint256",
          "name": "",
          "type": "uint256"
        }
      ],
      "stateMutability": "view",
      "type": "function"
    },
    {
      "inputs": [
        {
          "internalType": "address",
          "name": "spender",
          "type": "address"
        },
        {
          "internalType": "uint256",
          "name": "addedValue",
          "type": "uint256"
        }
      ],
      "name": "increaseAllowance",
      "outputs": [
        {
          "internalType": "bool",
          "name": "",
          "type": "bool"
        }
      ],
      "stateMutability": "nonpayable",
      "type": "function"
    },
    {
      "inputs": [],
      "name": "lockTime",
      "outputs": [
        {
          "internalType": "uint256",
          "name": "",
          "type": "uint256"
        }
      ],
      "stateMutability": "view",
      "type": "function"
    },
    {
      "inputs": [
        {
          "internalType": "uint256",
          "name": "_amount",
          "type": "uint256"
        },
        {
          "internalType": "address",
          "name": "_beneficiary",
          "type": "address"
        }
      ],
      "name": "lockTokens",
      "outputs": [],
      "stateMutability": "nonpayable",
      "type": "function"
    },
    {
      "inputs": [
        {
          "internalType": "uint256",
          "name": "",
          "type": "uint256"
        }
      ],
      "name": "locks",
      "outputs": [
        {
          "internalType": "uint256",
          "name": "amount",
          "type": "uint256"
        },
        {
          "internalType": "uint256",
          "name": "releaseTime",
          "type": "uint256"
        }
      ],
      "stateMutability": "view",
      "type": "function"
    },
    {
      "inputs": [],
      "name": "name",
      "outputs": [
        {
          "internalType": "string",
          "name": "",
          "type": "string"
        }
      ],
      "stateMutability": "view",
      "type": "function"
    },
    {
      "inputs": [],
      "name": "owner",
      "outputs": [
        {
          "internalType": "address",
          "name": "",
          "type": "address"
        }
      ],
      "stateMutability": "view",
      "type": "function"
    },
    {
      "inputs": [],
      "name": "renounceOwnership",
      "outputs": [],
      "stateMutability": "nonpayable",
      "type": "function"
    },
    {
      "inputs": [],
      "name": "symbol",
      "outputs": [
        {
          "internalType": "string",
          "name": "",
          "type": "string"
        }
      ],
      "stateMutability": "view",
      "type": "function"
    },
    {
      "inputs": [],
      "name": "totalSupply",
      "outputs": [
        {
          "internalType": "uint256",
          "name": "",
          "type": "uint256"
        }
      ],
      "stateMutability": "view",
      "type": "function"
    },
    {
      "inputs": [
        {
          "internalType": "address",
          "name": "to",
          "type": "address"
        },
        {
          "internalType": "uint256",
          "name": "amount",
          "type": "uint256"
        }
      ],
      "name": "transfer",
      "outputs": [
        {
          "internalType": "bool",
          "name": "",
          "type": "bool"
        }
      ],
      "stateMutability": "nonpayable",
      "type": "function"
    },
    {
      "inputs": [
        {
          "internalType": "address",
          "name": "from",
          "type": "address"
        },
        {
          "internalType": "address",
          "name": "to",
          "type": "address"
        },
        {
          "internalType": "uint256",
          "name": "amount",
          "type": "uint256"
        }
      ],
      "name": "transferFrom",
      "outputs": [
        {
          "internalType": "bool",
          "name": "",
          "type": "bool"
        }
      ],
      "stateMutability": "nonpayable",
      "type": "function"
    },
    {
      "inputs": [
        {
          "internalType": "address",
          "name": "newOwner",
          "type": "address"
        }
      ],
      "name": "transferOwnership",
      "outputs": [],
      "stateMutability": "nonpayable",
      "type": "function"
    },
    {
      "inputs": [],
      "name": "unlockTime",
      "outputs": [
        {
          "internalType": "uint256",
          "name": "",
          "type": "uint256"
        }
      ],
      "stateMutability": "view",
      "type": "function"
    }
  ],
  "transactionHash": "0xba01f6c1898f2049259679872dec4562de6e2830a5895a471a47547aa5d9ec50",
  "args": [
    7
  ],
  "numDeployments": 1,
  "solcInputHash": "291cef520eddb002bbbdb1b0baa7a108",
  "bytecode": "0x60806040523480156200001157600080fd5b5060405162002d6938038062002d6983398181016040528101906200003791906200041f565b6040518060400160405280600781526020017f7733546f6b656e000000000000000000000000000000000000000000000000008152506040518060400160405280600281526020017f57330000000000000000000000000000000000000000000000000000000000008152508160039081620000b49190620006c1565b508060049081620000c69190620006c1565b505050620000e9620000dd6200019a60201b60201c565b620001a260201b60201c565b600160068190555062000122336012600a6200010691906200092b565b620f42406200011691906200097c565b6200026860201b60201c565b33600960006101000a81548173ffffffffffffffffffffffffffffffffffffffff021916908373ffffffffffffffffffffffffffffffffffffffff160217905550603c806018836200017591906200097c565b6200018191906200097c565b6200018d91906200097c565b600b819055505062000ab3565b600033905090565b6000600560009054906101000a900473ffffffffffffffffffffffffffffffffffffffff16905081600560006101000a81548173ffffffffffffffffffffffffffffffffffffffff021916908373ffffffffffffffffffffffffffffffffffffffff1602179055508173ffffffffffffffffffffffffffffffffffffffff168173ffffffffffffffffffffffffffffffffffffffff167f8be0079c531659141344cd1fd0a4f28419497f9722a3daafe3b4186f6b6457e060405160405180910390a35050565b600073ffffffffffffffffffffffffffffffffffffffff168273ffffffffffffffffffffffffffffffffffffffff1603620002da576040517f08c379a0000000000000000000000000000000000000000000000000000000008152600401620002d19062000a28565b60405180910390fd5b620002ee60008383620003d560201b60201c565b806002600082825462000302919062000a4a565b92505081905550806000808473ffffffffffffffffffffffffffffffffffffffff1673ffffffffffffffffffffffffffffffffffffffff168152602001908152602001600020600082825401925050819055508173ffffffffffffffffffffffffffffffffffffffff16600073ffffffffffffffffffffffffffffffffffffffff167fddf252ad1be2c89b69c2b068fc378daa952ba7f163c4a11628f55a4df523b3ef83604051620003b5919062000a96565b60405180910390a3620003d160008383620003da60201b60201c565b5050565b505050565b505050565b600080fd5b6000819050919050565b620003f981620003e4565b81146200040557600080fd5b50565b6000815190506200041981620003ee565b92915050565b600060208284031215620004385762000437620003df565b5b6000620004488482850162000408565b91505092915050565b600081519050919050565b7f4e487b7100000000000000000000000000000000000000000000000000000000600052604160045260246000fd5b7f4e487b7100000000000000000000000000000000000000000000000000000000600052602260045260246000fd5b60006002820490506001821680620004d357607f821691505b602082108103620004e957620004e86200048b565b5b50919050565b60008190508160005260206000209050919050565b60006020601f8301049050919050565b600082821b905092915050565b600060088302620005537fffffffffffffffffffffffffffffffffffffffffffffffffffffffffffffffff8262000514565b6200055f868362000514565b95508019841693508086168417925050509392505050565b6000819050919050565b6000620005a26200059c6200059684620003e4565b62000577565b620003e4565b9050919050565b6000819050919050565b620005be8362000581565b620005d6620005cd82620005a9565b84845462000521565b825550505050565b600090565b620005ed620005de565b620005fa818484620005b3565b505050565b5b81811015620006225762000616600082620005e3565b60018101905062000600565b5050565b601f82111562000671576200063b81620004ef565b620006468462000504565b8101602085101562000656578190505b6200066e620006658562000504565b830182620005ff565b50505b505050565b600082821c905092915050565b6000620006966000198460080262000676565b1980831691505092915050565b6000620006b1838362000683565b9150826002028217905092915050565b620006cc8262000451565b67ffffffffffffffff811115620006e857620006e76200045c565b5b620006f48254620004ba565b6200070182828562000626565b600060209050601f83116001811462000739576000841562000724578287015190505b620007308582620006a3565b865550620007a0565b601f1984166200074986620004ef565b60005b8281101562000773578489015182556001820191506020850194506020810190506200074c565b868310156200079357848901516200078f601f89168262000683565b8355505b6001600288020188555050505b505050505050565b7f4e487b7100000000000000000000000000000000000000000000000000000000600052601160045260246000fd5b60008160011c9050919050565b6000808291508390505b600185111562000836578086048111156200080e576200080d620007a8565b5b60018516156200081e5780820291505b80810290506200082e85620007d7565b9450620007ee565b94509492505050565b60008262000851576001905062000924565b8162000861576000905062000924565b81600181146200087a57600281146200088557620008bb565b600191505062000924565b60ff8411156200089a5762000899620007a8565b5b8360020a915084821115620008b457620008b3620007a8565b5b5062000924565b5060208310610133831016604e8410600b8410161715620008f55782820a905083811115620008ef57620008ee620007a8565b5b62000924565b620009048484846001620007e4565b925090508184048111156200091e576200091d620007a8565b5b81810290505b9392505050565b60006200093882620003e4565b91506200094583620003e4565b9250620009747fffffffffffffffffffffffffffffffffffffffffffffffffffffffffffffffff84846200083f565b905092915050565b60006200098982620003e4565b91506200099683620003e4565b9250828202620009a681620003e4565b91508282048414831517620009c057620009bf620007a8565b5b5092915050565b600082825260208201905092915050565b7f45524332303a206d696e7420746f20746865207a65726f206164647265737300600082015250565b600062000a10601f83620009c7565b915062000a1d82620009d8565b602082019050919050565b6000602082019050818103600083015262000a438162000a01565b9050919050565b600062000a5782620003e4565b915062000a6483620003e4565b925082820190508082111562000a7f5762000a7e620007a8565b5b92915050565b62000a9081620003e4565b82525050565b600060208201905062000aad600083018462000a85565b92915050565b6122a68062000ac36000396000f3fe608060405234801561001057600080fd5b50600436106101735760003560e01c8063715018a6116100de578063aa68acde11610097578063dd62ed3e11610071578063dd62ed3e14610466578063f2fde38b14610496578063f4dadc61146104b2578063f851a440146104e357610173565b8063aa68acde146103fc578063acabdf6214610418578063dbb1815d1461043657610173565b8063715018a6146103265780637a45100b146103305780638da5cb5b1461036057806395d89b411461037e578063a457c2d71461039c578063a9059cbb146103cc57610173565b8063251c1aa311610130578063251c1aa314610262578063313ce56714610280578063395093511461029e57806348c54b9d146102ce5780636609d7ae146102d857806370a08231146102f657610173565b806306fdde0314610178578063095ea7b3146101965780630d668087146101c657806318160ddd146101e45780631f6c1e6c1461020257806323b872dd14610232575b600080fd5b610180610501565b60405161018d9190611691565b60405180910390f35b6101b060048036038101906101ab919061174c565b610593565b6040516101bd91906117a7565b60405180910390f35b6101ce6105b6565b6040516101db91906117d1565b60405180910390f35b6101ec6105bc565b6040516101f991906117d1565b60405180910390f35b61021c600480360381019061021791906117ec565b6105c6565b60405161022991906117d1565b60405180910390f35b61024c60048036038101906102479190611819565b61060f565b60405161025991906117a7565b60405180910390f35b61026a61063e565b60405161027791906117d1565b60405180910390f35b610288610644565b6040516102959190611888565b60405180910390f35b6102b860048036038101906102b3919061174c565b61064d565b6040516102c591906117a7565b60405180910390f35b6102d6610684565b005b6102e06109b7565b6040516102ed91906117d1565b60405180910390f35b610310600480360381019061030b91906117ec565b610a28565b60405161031d91906117d1565b60405180910390f35b61032e610a70565b005b61034a600480360381019061034591906117ec565b610a84565b60405161035791906117d1565b60405180910390f35b610368610a9c565b60405161037591906118b2565b60405180910390f35b610386610ac6565b6040516103939190611691565b60405180910390f35b6103b660048036038101906103b1919061174c565b610b58565b6040516103c391906117a7565b60405180910390f35b6103e660048036038101906103e1919061174c565b610bcf565b6040516103f391906117a7565b60405180910390f35b610416600480360381019061041191906118cd565b610bf2565b005b610420610e57565b60405161042d91906117d1565b60405180910390f35b610450600480360381019061044b91906117ec565b610e64565b60405161045d91906117d1565b60405180910390f35b610480600480360381019061047b919061190d565b610e7c565b60405161048d91906117d1565b60405180910390f35b6104b060048036038101906104ab91906117ec565b610f03565b005b6104cc60048036038101906104c7919061194d565b610f86565b6040516104da92919061197a565b60405180910390f35b6104eb610fba565b6040516104f891906118b2565b60405180910390f35b606060038054610510906119d2565b80601f016020809104026020016040519081016040528092919081815260200182805461053c906119d2565b80156105895780601f1061055e57610100808354040283529160200191610589565b820191906000526020600020905b81548152906001019060200180831161056c57829003601f168201915b5050505050905090565b60008061059e610fe0565b90506105ab818585610fe8565b600191505092915050565b600b5481565b6000600254905090565b6000600860008373ffffffffffffffffffffffffffffffffffffffff1673ffffffffffffffffffffffffffffffffffffffff168152602001908152602001600020549050919050565b60008061061a610fe0565b90506106278582856111b1565b61063285858561123d565b60019150509392505050565b600a5481565b60006012905090565b600080610658610fe0565b905061067981858561066a8589610e7c565b6106749190611a32565b610fe8565b600191505092915050565b6000600760003373ffffffffffffffffffffffffffffffffffffffff1673ffffffffffffffffffffffffffffffffffffffff1681526020019081526020016000205411610706576040517f08c379a00000000000000000000000000000000000000000000000000000000081526004016106fd90611ab2565b60405180910390fd5b6000600760003373ffffffffffffffffffffffffffffffffffffffff1673ffffffffffffffffffffffffffffffffffffffff168152602001908152602001600020549050600c818154811061075e5761075d611ad2565b5b90600052602060002090600202016001015442116107b1576040517f08c379a00000000000000000000000000000000000000000000000000000000081526004016107a890611b4d565b60405180910390fd5b6000600c82815481106107c7576107c6611ad2565b5b90600052602060002090600202016000015490506000811161081e576040517f08c379a000000000000000000000000000000000000000000000000000000000815260040161081590611bb9565b60405180910390fd5b80600860003373ffffffffffffffffffffffffffffffffffffffff1673ffffffffffffffffffffffffffffffffffffffff168152602001908152602001600020600082825461086d9190611a32565b9250508190555061087f30338361123d565b600c80549050821061089057600080fd5b600c6001600c805490506108a49190611bd9565b815481106108b5576108b4611ad2565b5b9060005260206000209060020201600c83815481106108d7576108d6611ad2565b5b90600052602060002090600202016000820154816000015560018201548160010155905050600c80548061090e5761090d611c0d565b5b6001900381819060005260206000209060020201600080820160009055600182016000905550509055600760003373ffffffffffffffffffffffffffffffffffffffff1673ffffffffffffffffffffffffffffffffffffffff168152602001908152602001600020600090557f896e034966eaaf1adc54acc0f257056febbd300c9e47182cf761982cf1f5e43033826040516109ab929190611c3c565b60405180910390a15050565b600080600760003373ffffffffffffffffffffffffffffffffffffffff1673ffffffffffffffffffffffffffffffffffffffff168152602001908152602001600020549050600c8181548110610a1057610a0f611ad2565b5b90600052602060002090600202016001015491505090565b60008060008373ffffffffffffffffffffffffffffffffffffffff1673ffffffffffffffffffffffffffffffffffffffff168152602001908152602001600020549050919050565b610a786114b3565b610a826000611531565b565b60086020528060005260406000206000915090505481565b6000600560009054906101000a900473ffffffffffffffffffffffffffffffffffffffff16905090565b606060048054610ad5906119d2565b80601f0160208091040260200160405190810160405280929190818152602001828054610b01906119d2565b8015610b4e5780601f10610b2357610100808354040283529160200191610b4e565b820191906000526020600020905b815481529060010190602001808311610b3157829003601f168201915b5050505050905090565b600080610b63610fe0565b90506000610b718286610e7c565b905083811015610bb6576040517f08c379a0000000000000000000000000000000000000000000000000000000008152600401610bad90611cd7565b60405180910390fd5b610bc38286868403610fe8565b60019250505092915050565b600080610bda610fe0565b9050610be781858561123d565b600191505092915050565b610bfa6114b3565b8073ffffffffffffffffffffffffffffffffffffffff163373ffffffffffffffffffffffffffffffffffffffff1603610c68576040517f08c379a0000000000000000000000000000000000000000000000000000000008152600401610c5f90611d43565b60405180910390fd5b6000600760008373ffffffffffffffffffffffffffffffffffffffff1673ffffffffffffffffffffffffffffffffffffffff1681526020019081526020016000205414610cea576040517f08c379a0000000000000000000000000000000000000000000000000000000008152600401610ce190611dd5565b60405180910390fd5b610cf533308461123d565b6000600b5442610d059190611a32565b9050600060405180604001604052808581526020018381525090506000600c80549050905060008103610d8f57600c6040518060400160405280600081526020016000815250908060018154018082558091505060019003906000526020600020906002020160009091909190915060008201518160000155602082015181600101555050600190505b600c8290806001815401808255809150506001900390600052602060002090600202016000909190919091506000820151816000015560208201518160010155505080600760008673ffffffffffffffffffffffffffffffffffffffff1673ffffffffffffffffffffffffffffffffffffffff168152602001908152602001600020819055507f74ab4d62f7439ac9599414cea8261f0ea735ce362df50b525c954d1c637cc253858486604051610e4893929190611df5565b60405180910390a15050505050565b6000600c80549050905090565b60076020528060005260406000206000915090505481565b6000600160008473ffffffffffffffffffffffffffffffffffffffff1673ffffffffffffffffffffffffffffffffffffffff16815260200190815260200160002060008373ffffffffffffffffffffffffffffffffffffffff1673ffffffffffffffffffffffffffffffffffffffff16815260200190815260200160002054905092915050565b610f0b6114b3565b600073ffffffffffffffffffffffffffffffffffffffff168173ffffffffffffffffffffffffffffffffffffffff1603610f7a576040517f08c379a0000000000000000000000000000000000000000000000000000000008152600401610f7190611e9e565b60405180910390fd5b610f8381611531565b50565b600c8181548110610f9657600080fd5b90600052602060002090600202016000915090508060000154908060010154905082565b600960009054906101000a900473ffffffffffffffffffffffffffffffffffffffff1681565b600033905090565b600073ffffffffffffffffffffffffffffffffffffffff168373ffffffffffffffffffffffffffffffffffffffff1603611057576040517f08c379a000000000000000000000000000000000000000000000000000000000815260040161104e90611f30565b60405180910390fd5b600073ffffffffffffffffffffffffffffffffffffffff168273ffffffffffffffffffffffffffffffffffffffff16036110c6576040517f08c379a00000000000000000000000000000000000000000000000000000000081526004016110bd90611fc2565b60405180910390fd5b80600160008573ffffffffffffffffffffffffffffffffffffffff1673ffffffffffffffffffffffffffffffffffffffff16815260200190815260200160002060008473ffffffffffffffffffffffffffffffffffffffff1673ffffffffffffffffffffffffffffffffffffffff168152602001908152602001600020819055508173ffffffffffffffffffffffffffffffffffffffff168373ffffffffffffffffffffffffffffffffffffffff167f8c5be1e5ebec7d5bd14f71427d1e84f3dd0314c0f7b2291e5b200ac8c7c3b925836040516111a491906117d1565b60405180910390a3505050565b60006111bd8484610e7c565b90507fffffffffffffffffffffffffffffffffffffffffffffffffffffffffffffffff81146112375781811015611229576040517f08c379a00000000000000000000000000000000000000000000000000000000081526004016112209061202e565b60405180910390fd5b6112368484848403610fe8565b5b50505050565b600073ffffffffffffffffffffffffffffffffffffffff168373ffffffffffffffffffffffffffffffffffffffff16036112ac576040517f08c379a00000000000000000000000000000000000000000000000000000000081526004016112a3906120c0565b60405180910390fd5b600073ffffffffffffffffffffffffffffffffffffffff168273ffffffffffffffffffffffffffffffffffffffff160361131b576040517f08c379a000000000000000000000000000000000000000000000000000000000815260040161131290612152565b60405180910390fd5b6113268383836115f7565b60008060008573ffffffffffffffffffffffffffffffffffffffff1673ffffffffffffffffffffffffffffffffffffffff168152602001908152602001600020549050818110156113ac576040517f08c379a00000000000000000000000000000000000000000000000000000000081526004016113a3906121e4565b60405180910390fd5b8181036000808673ffffffffffffffffffffffffffffffffffffffff1673ffffffffffffffffffffffffffffffffffffffff16815260200190815260200160002081905550816000808573ffffffffffffffffffffffffffffffffffffffff1673ffffffffffffffffffffffffffffffffffffffff168152602001908152602001600020600082825401925050819055508273ffffffffffffffffffffffffffffffffffffffff168473ffffffffffffffffffffffffffffffffffffffff167fddf252ad1be2c89b69c2b068fc378daa952ba7f163c4a11628f55a4df523b3ef8460405161149a91906117d1565b60405180910390a36114ad8484846115fc565b50505050565b6114bb610fe0565b73ffffffffffffffffffffffffffffffffffffffff166114d9610a9c565b73ffffffffffffffffffffffffffffffffffffffff161461152f576040517f08c379a000000000000000000000000000000000000000000000000000000000815260040161152690612250565b60405180910390fd5b565b6000600560009054906101000a900473ffffffffffffffffffffffffffffffffffffffff16905081600560006101000a81548173ffffffffffffffffffffffffffffffffffffffff021916908373ffffffffffffffffffffffffffffffffffffffff1602179055508173ffffffffffffffffffffffffffffffffffffffff168173ffffffffffffffffffffffffffffffffffffffff167f8be0079c531659141344cd1fd0a4f28419497f9722a3daafe3b4186f6b6457e060405160405180910390a35050565b505050565b505050565b600081519050919050565b600082825260208201905092915050565b60005b8381101561163b578082015181840152602081019050611620565b60008484015250505050565b6000601f19601f8301169050919050565b600061166382611601565b61166d818561160c565b935061167d81856020860161161d565b61168681611647565b840191505092915050565b600060208201905081810360008301526116ab8184611658565b905092915050565b600080fd5b600073ffffffffffffffffffffffffffffffffffffffff82169050919050565b60006116e3826116b8565b9050919050565b6116f3816116d8565b81146116fe57600080fd5b50565b600081359050611710816116ea565b92915050565b6000819050919050565b61172981611716565b811461173457600080fd5b50565b60008135905061174681611720565b92915050565b60008060408385031215611763576117626116b3565b5b600061177185828601611701565b925050602061178285828601611737565b9150509250929050565b60008115159050919050565b6117a18161178c565b82525050565b60006020820190506117bc6000830184611798565b92915050565b6117cb81611716565b82525050565b60006020820190506117e660008301846117c2565b92915050565b600060208284031215611802576118016116b3565b5b600061181084828501611701565b91505092915050565b600080600060608486031215611832576118316116b3565b5b600061184086828701611701565b935050602061185186828701611701565b925050604061186286828701611737565b9150509250925092565b600060ff82169050919050565b6118828161186c565b82525050565b600060208201905061189d6000830184611879565b92915050565b6118ac816116d8565b82525050565b60006020820190506118c760008301846118a3565b92915050565b600080604083850312156118e4576118e36116b3565b5b60006118f285828601611737565b925050602061190385828601611701565b9150509250929050565b60008060408385031215611924576119236116b3565b5b600061193285828601611701565b925050602061194385828601611701565b9150509250929050565b600060208284031215611963576119626116b3565b5b600061197184828501611737565b91505092915050565b600060408201905061198f60008301856117c2565b61199c60208301846117c2565b9392505050565b7f4e487b7100000000000000000000000000000000000000000000000000000000600052602260045260246000fd5b600060028204905060018216806119ea57607f821691505b6020821081036119fd576119fc6119a3565b5b50919050565b7f4e487b7100000000000000000000000000000000000000000000000000000000600052601160045260246000fd5b6000611a3d82611716565b9150611a4883611716565b9250828201905080821115611a6057611a5f611a03565b5b92915050565b7f42454e45464943494152595f4e4f545f464f554e440000000000000000000000600082015250565b6000611a9c60158361160c565b9150611aa782611a66565b602082019050919050565b60006020820190508181036000830152611acb81611a8f565b9050919050565b7f4e487b7100000000000000000000000000000000000000000000000000000000600052603260045260246000fd5b7f544f4b454e535f4152455f5354494c4c5f4c4f434b4544000000000000000000600082015250565b6000611b3760178361160c565b9150611b4282611b01565b602082019050919050565b60006020820190508181036000830152611b6681611b2a565b9050919050565b7f4e4f5f544f4b454e535f544f5f434c41494d0000000000000000000000000000600082015250565b6000611ba360128361160c565b9150611bae82611b6d565b602082019050919050565b60006020820190508181036000830152611bd281611b96565b9050919050565b6000611be482611716565b9150611bef83611716565b9250828203905081811115611c0757611c06611a03565b5b92915050565b7f4e487b7100000000000000000000000000000000000000000000000000000000600052603160045260246000fd5b6000604082019050611c5160008301856118a3565b611c5e60208301846117c2565b9392505050565b7f45524332303a2064656372656173656420616c6c6f77616e63652062656c6f7760008201527f207a65726f000000000000000000000000000000000000000000000000000000602082015250565b6000611cc160258361160c565b9150611ccc82611c65565b604082019050919050565b60006020820190508181036000830152611cf081611cb4565b9050919050565b7f43414e5f4e4f545f5452414e534645525f544f4b454e5f544f5f4f574e000000600082015250565b6000611d2d601d8361160c565b9150611d3882611cf7565b602082019050919050565b60006020820190508181036000830152611d5c81611d20565b9050919050565b7f544f4b454e535f414c524544595f4c4f434b45445f464f525f544849535f555360008201527f4552000000000000000000000000000000000000000000000000000000000000602082015250565b6000611dbf60228361160c565b9150611dca82611d63565b604082019050919050565b60006020820190508181036000830152611dee81611db2565b9050919050565b6000606082019050611e0a60008301866117c2565b611e1760208301856117c2565b611e2460408301846118a3565b949350505050565b7f4f776e61626c653a206e6577206f776e657220697320746865207a65726f206160008201527f6464726573730000000000000000000000000000000000000000000000000000602082015250565b6000611e8860268361160c565b9150611e9382611e2c565b604082019050919050565b60006020820190508181036000830152611eb781611e7b565b9050919050565b7f45524332303a20617070726f76652066726f6d20746865207a65726f2061646460008201527f7265737300000000000000000000000000000000000000000000000000000000602082015250565b6000611f1a60248361160c565b9150611f2582611ebe565b604082019050919050565b60006020820190508181036000830152611f4981611f0d565b9050919050565b7f45524332303a20617070726f766520746f20746865207a65726f20616464726560008201527f7373000000000000000000000000000000000000000000000000000000000000602082015250565b6000611fac60228361160c565b9150611fb782611f50565b604082019050919050565b60006020820190508181036000830152611fdb81611f9f565b9050919050565b7f45524332303a20696e73756666696369656e7420616c6c6f77616e6365000000600082015250565b6000612018601d8361160c565b915061202382611fe2565b602082019050919050565b600060208201905081810360008301526120478161200b565b9050919050565b7f45524332303a207472616e736665722066726f6d20746865207a65726f20616460008201527f6472657373000000000000000000000000000000000000000000000000000000602082015250565b60006120aa60258361160c565b91506120b58261204e565b604082019050919050565b600060208201905081810360008301526120d98161209d565b9050919050565b7f45524332303a207472616e7366657220746f20746865207a65726f206164647260008201527f6573730000000000000000000000000000000000000000000000000000000000602082015250565b600061213c60238361160c565b9150612147826120e0565b604082019050919050565b6000602082019050818103600083015261216b8161212f565b9050919050565b7f45524332303a207472616e7366657220616d6f756e742065786365656473206260008201527f616c616e63650000000000000000000000000000000000000000000000000000602082015250565b60006121ce60268361160c565b91506121d982612172565b604082019050919050565b600060208201905081810360008301526121fd816121c1565b9050919050565b7f4f776e61626c653a2063616c6c6572206973206e6f7420746865206f776e6572600082015250565b600061223a60208361160c565b915061224582612204565b602082019050919050565b600060208201905081810360008301526122698161222d565b905091905056fea2646970667358221220bee8d3befd6116add6c2c63407f5b66b8f5bb857ddeb229a53f677d135147dfc64736f6c63430008120033",
  "devdoc": {
    "events": {
      "Approval(address,address,uint256)": {
        "details": "Emitted when the allowance of a `spender` for an `owner` is set by a call to {approve}. `value` is the new allowance."
      },
      "Transfer(address,address,uint256)": {
        "details": "Emitted when `value` tokens are moved from one account (`from`) to another (`to`). Note that `value` may be zero."
      }
    },
    "kind": "dev",
    "methods": {
      "allowance(address,address)": {
        "details": "See {IERC20-allowance}."
      },
      "approve(address,uint256)": {
        "details": "See {IERC20-approve}. NOTE: If `amount` is the maximum `uint256`, the allowance is not updated on `transferFrom`. This is semantically equivalent to an infinite approval. Requirements: - `spender` cannot be the zero address."
      },
      "balanceOf(address)": {
        "details": "See {IERC20-balanceOf}."
      },
      "decimals()": {
        "details": "Returns the number of decimals used to get its user representation. For example, if `decimals` equals `2`, a balance of `505` tokens should be displayed to a user as `5.05` (`505 / 10 ** 2`). Tokens usually opt for a value of 18, imitating the relationship between Ether and Wei. This is the value {ERC20} uses, unless this function is overridden; NOTE: This information is only used for _display_ purposes: it in no way affects any of the arithmetic of the contract, including {IERC20-balanceOf} and {IERC20-transfer}."
      },
      "decreaseAllowance(address,uint256)": {
        "details": "Atomically decreases the allowance granted to `spender` by the caller. This is an alternative to {approve} that can be used as a mitigation for problems described in {IERC20-approve}. Emits an {Approval} event indicating the updated allowance. Requirements: - `spender` cannot be the zero address. - `spender` must have allowance for the caller of at least `subtractedValue`."
      },
      "increaseAllowance(address,uint256)": {
        "details": "Atomically increases the allowance granted to `spender` by the caller. This is an alternative to {approve} that can be used as a mitigation for problems described in {IERC20-approve}. Emits an {Approval} event indicating the updated allowance. Requirements: - `spender` cannot be the zero address."
      },
      "name()": {
        "details": "Returns the name of the token."
      },
      "owner()": {
        "details": "Returns the address of the current owner."
      },
      "renounceOwnership()": {
        "details": "Leaves the contract without owner. It will not be possible to call `onlyOwner` functions anymore. Can only be called by the current owner. NOTE: Renouncing ownership will leave the contract without an owner, thereby removing any functionality that is only available to the owner."
      },
      "symbol()": {
        "details": "Returns the symbol of the token, usually a shorter version of the name."
      },
      "totalSupply()": {
        "details": "See {IERC20-totalSupply}."
      },
      "transfer(address,uint256)": {
        "details": "See {IERC20-transfer}. Requirements: - `to` cannot be the zero address. - the caller must have a balance of at least `amount`."
      },
      "transferFrom(address,address,uint256)": {
        "details": "See {IERC20-transferFrom}. Emits an {Approval} event indicating the updated allowance. This is not required by the EIP. See the note at the beginning of {ERC20}. NOTE: Does not update the allowance if the current allowance is the maximum `uint256`. Requirements: - `from` and `to` cannot be the zero address. - `from` must have a balance of at least `amount`. - the caller must have allowance for ``from``'s tokens of at least `amount`."
      },
      "transferOwnership(address)": {
        "details": "Transfers ownership of the contract to a new account (`newOwner`). Can only be called by the current owner."
      }
    },
    "version": 1
  },
  "userdoc": {
    "kind": "user",
    "methods": {},
    "version": 1
  },
  "storageLayout": {
    "storage": [
      {
        "astId": 182,
        "contract": "contracts/TokenLocker.sol:TokenLocker",
        "label": "_balances",
        "offset": 0,
        "slot": "0",
        "type": "t_mapping(t_address,t_uint256)"
      },
      {
        "astId": 188,
        "contract": "contracts/TokenLocker.sol:TokenLocker",
        "label": "_allowances",
        "offset": 0,
        "slot": "1",
        "type": "t_mapping(t_address,t_mapping(t_address,t_uint256))"
      },
      {
        "astId": 190,
        "contract": "contracts/TokenLocker.sol:TokenLocker",
        "label": "_totalSupply",
        "offset": 0,
        "slot": "2",
        "type": "t_uint256"
      },
      {
        "astId": 192,
        "contract": "contracts/TokenLocker.sol:TokenLocker",
        "label": "_name",
        "offset": 0,
        "slot": "3",
        "type": "t_string_storage"
      },
      {
        "astId": 194,
        "contract": "contracts/TokenLocker.sol:TokenLocker",
        "label": "_symbol",
        "offset": 0,
        "slot": "4",
        "type": "t_string_storage"
      },
      {
        "astId": 7,
        "contract": "contracts/TokenLocker.sol:TokenLocker",
        "label": "_owner",
        "offset": 0,
        "slot": "5",
        "type": "t_address"
      },
      {
        "astId": 123,
        "contract": "contracts/TokenLocker.sol:TokenLocker",
        "label": "_status",
        "offset": 0,
        "slot": "6",
        "type": "t_uint256"
      },
      {
        "astId": 2007,
        "contract": "contracts/TokenLocker.sol:TokenLocker",
        "label": "beneficiaryIndex",
        "offset": 0,
        "slot": "7",
        "type": "t_mapping(t_address,t_uint256)"
      },
      {
        "astId": 2011,
        "contract": "contracts/TokenLocker.sol:TokenLocker",
        "label": "beneficiaryClaimed",
        "offset": 0,
        "slot": "8",
        "type": "t_mapping(t_address,t_uint256)"
      },
      {
        "astId": 2013,
        "contract": "contracts/TokenLocker.sol:TokenLocker",
        "label": "admin",
        "offset": 0,
        "slot": "9",
        "type": "t_address"
      },
      {
        "astId": 2015,
        "contract": "contracts/TokenLocker.sol:TokenLocker",
        "label": "unlockTime",
        "offset": 0,
        "slot": "10",
        "type": "t_uint256"
      },
      {
        "astId": 2017,
        "contract": "contracts/TokenLocker.sol:TokenLocker",
        "label": "lockTime",
        "offset": 0,
        "slot": "11",
        "type": "t_uint256"
      },
      {
        "astId": 2021,
        "contract": "contracts/TokenLocker.sol:TokenLocker",
        "label": "locks",
        "offset": 0,
        "slot": "12",
        "type": "t_array(t_struct(Lock)2003_storage)dyn_storage"
      }
    ],
    "types": {
      "t_address": {
        "encoding": "inplace",
        "label": "address",
        "numberOfBytes": "20"
      },
      "t_array(t_struct(Lock)2003_storage)dyn_storage": {
        "base": "t_struct(Lock)2003_storage",
        "encoding": "dynamic_array",
        "label": "struct TokenLocker.Lock[]",
        "numberOfBytes": "32"
      },
      "t_mapping(t_address,t_mapping(t_address,t_uint256))": {
        "encoding": "mapping",
        "key": "t_address",
        "label": "mapping(address => mapping(address => uint256))",
        "numberOfBytes": "32",
        "value": "t_mapping(t_address,t_uint256)"
      },
      "t_mapping(t_address,t_uint256)": {
        "encoding": "mapping",
        "key": "t_address",
        "label": "mapping(address => uint256)",
        "numberOfBytes": "32",
        "value": "t_uint256"
      },
      "t_string_storage": {
        "encoding": "bytes",
        "label": "string",
        "numberOfBytes": "32"
      },
      "t_struct(Lock)2003_storage": {
        "encoding": "inplace",
        "label": "struct TokenLocker.Lock",
        "members": [
          {
            "astId": 2000,
            "contract": "contracts/TokenLocker.sol:TokenLocker",
            "label": "amount",
            "offset": 0,
            "slot": "0",
            "type": "t_uint256"
          },
          {
            "astId": 2002,
            "contract": "contracts/TokenLocker.sol:TokenLocker",
            "label": "releaseTime",
            "offset": 0,
            "slot": "1",
            "type": "t_uint256"
          }
        ],
        "numberOfBytes": "64"
      },
      "t_uint256": {
        "encoding": "inplace",
        "label": "uint256",
        "numberOfBytes": "32"
      }
    }
  }
}